{
  "contractName": "TokenSale",
  "abi": [
    {
      "inputs": [],
      "stateMutability": "nonpayable",
      "type": "constructor"
    },
    {
      "anonymous": false,
      "inputs": [
        {
          "indexed": true,
          "internalType": "address",
          "name": "owner",
          "type": "address"
        },
        {
          "indexed": true,
          "internalType": "address",
          "name": "spender",
          "type": "address"
        },
        {
          "indexed": false,
          "internalType": "uint256",
          "name": "value",
          "type": "uint256"
        }
      ],
      "name": "Approval",
      "type": "event"
    },
    {
      "anonymous": false,
      "inputs": [
        {
          "indexed": true,
          "internalType": "address",
          "name": "previousOwner",
          "type": "address"
        },
        {
          "indexed": true,
          "internalType": "address",
          "name": "newOwner",
          "type": "address"
        }
      ],
      "name": "OwnershipTransferred",
      "type": "event"
    },
    {
      "anonymous": false,
      "inputs": [
        {
          "indexed": true,
          "internalType": "address",
          "name": "from",
          "type": "address"
        },
        {
          "indexed": true,
          "internalType": "address",
          "name": "to",
          "type": "address"
        },
        {
          "indexed": false,
          "internalType": "uint256",
          "name": "value",
          "type": "uint256"
        }
      ],
      "name": "Transfer",
      "type": "event"
    },
    {
      "anonymous": false,
      "inputs": [
        {
          "indexed": false,
          "internalType": "uint256",
          "name": "",
          "type": "uint256"
        }
      ],
      "name": "_Balances",
      "type": "event"
    },
    {
      "stateMutability": "payable",
      "type": "fallback",
      "payable": true
    },
    {
      "inputs": [
        {
          "internalType": "address",
          "name": "tokenOwner",
          "type": "address"
        },
        {
          "internalType": "address",
          "name": "spender",
          "type": "address"
        }
      ],
      "name": "allowance",
      "outputs": [
        {
          "internalType": "uint256",
          "name": "",
          "type": "uint256"
        }
      ],
      "stateMutability": "view",
      "type": "function",
      "constant": true
    },
    {
      "inputs": [
        {
          "internalType": "address",
          "name": "spender",
          "type": "address"
        },
        {
          "internalType": "uint256",
          "name": "amount",
          "type": "uint256"
        }
      ],
      "name": "approve",
      "outputs": [
        {
          "internalType": "bool",
          "name": "",
          "type": "bool"
        }
      ],
      "stateMutability": "nonpayable",
      "type": "function"
    },
    {
      "inputs": [
        {
          "internalType": "address",
          "name": "account",
          "type": "address"
        }
      ],
      "name": "balanceOf",
      "outputs": [
        {
          "internalType": "uint256",
          "name": "",
          "type": "uint256"
        }
      ],
      "stateMutability": "view",
      "type": "function",
      "constant": true
    },
    {
      "inputs": [],
      "name": "currentSupply",
      "outputs": [
        {
          "internalType": "uint256",
          "name": "",
          "type": "uint256"
        }
      ],
      "stateMutability": "view",
      "type": "function",
      "constant": true
    },
    {
      "inputs": [],
      "name": "fundRais",
      "outputs": [
        {
          "internalType": "uint256",
          "name": "",
          "type": "uint256"
        }
      ],
      "stateMutability": "view",
      "type": "function",
      "constant": true
    },
    {
      "inputs": [],
      "name": "killingContract",
      "outputs": [
        {
          "internalType": "uint256",
          "name": "",
          "type": "uint256"
        }
      ],
      "stateMutability": "payable",
      "type": "function",
      "payable": true
    },
    {
      "inputs": [],
      "name": "name",
      "outputs": [
        {
          "internalType": "string",
          "name": "",
          "type": "string"
        }
      ],
      "stateMutability": "view",
      "type": "function",
      "constant": true
    },
    {
      "inputs": [],
      "name": "owner",
      "outputs": [
        {
          "internalType": "address",
          "name": "",
          "type": "address"
        }
      ],
      "stateMutability": "view",
      "type": "function",
      "constant": true
    },
    {
      "inputs": [],
      "name": "renounceOwnership",
      "outputs": [],
      "stateMutability": "nonpayable",
      "type": "function"
    },
    {
      "inputs": [],
      "name": "salesEtartTime",
      "outputs": [
        {
          "internalType": "uint256",
          "name": "",
          "type": "uint256"
        }
      ],
      "stateMutability": "view",
      "type": "function",
      "constant": true
    },
    {
      "inputs": [],
      "name": "salesStartTime",
      "outputs": [
        {
          "internalType": "uint256",
          "name": "",
          "type": "uint256"
        }
      ],
      "stateMutability": "view",
      "type": "function",
      "constant": true
    },
    {
      "inputs": [],
      "name": "symblol",
      "outputs": [
        {
          "internalType": "string",
          "name": "",
          "type": "string"
        }
      ],
      "stateMutability": "view",
      "type": "function",
      "constant": true
    },
    {
      "inputs": [],
      "name": "totalSupply",
      "outputs": [
        {
          "internalType": "uint256",
          "name": "",
          "type": "uint256"
        }
      ],
      "stateMutability": "view",
      "type": "function",
      "constant": true
    },
    {
      "inputs": [
        {
          "internalType": "address",
          "name": "recipient",
          "type": "address"
        },
        {
          "internalType": "uint256",
          "name": "amount",
          "type": "uint256"
        }
      ],
      "name": "transfer",
      "outputs": [
        {
          "internalType": "bool",
          "name": "",
          "type": "bool"
        }
      ],
      "stateMutability": "nonpayable",
      "type": "function"
    },
    {
      "inputs": [
        {
          "internalType": "address",
          "name": "tokenOwner",
          "type": "address"
        },
        {
          "internalType": "address",
          "name": "recipient",
          "type": "address"
        },
        {
          "internalType": "uint256",
          "name": "amount",
          "type": "uint256"
        }
      ],
      "name": "transferFrom",
      "outputs": [
        {
          "internalType": "bool",
          "name": "",
          "type": "bool"
        }
      ],
      "stateMutability": "nonpayable",
      "type": "function"
    },
    {
      "inputs": [
        {
          "internalType": "address",
          "name": "newOwner",
          "type": "address"
        }
      ],
      "name": "transferOwnership",
      "outputs": [],
      "stateMutability": "nonpayable",
      "type": "function"
    },
    {
      "stateMutability": "payable",
      "type": "receive",
      "payable": true
    },
    {
      "inputs": [],
      "name": "maxSupplyCap",
      "outputs": [
        {
          "internalType": "uint256",
          "name": "",
          "type": "uint256"
        }
      ],
      "stateMutability": "view",
      "type": "function",
      "constant": true
    },
    {
      "inputs": [
        {
          "internalType": "address",
          "name": "account",
          "type": "address"
        },
        {
          "internalType": "uint256",
          "name": "_mint",
          "type": "uint256"
        }
      ],
      "name": "minting",
      "outputs": [
        {
          "internalType": "bool",
          "name": "",
          "type": "bool"
        }
      ],
      "stateMutability": "nonpayable",
      "type": "function"
    },
    {
      "inputs": [
        {
          "internalType": "address",
          "name": "_priceSetter",
          "type": "address"
        }
      ],
      "name": "setRateSetter",
      "outputs": [],
      "stateMutability": "nonpayable",
      "type": "function"
    },
    {
      "inputs": [
        {
          "internalType": "address",
          "name": "_priceSetter",
          "type": "address"
        }
      ],
      "name": "delRateSetter",
      "outputs": [],
      "stateMutability": "nonpayable",
      "type": "function"
    },
    {
      "inputs": [
        {
          "internalType": "uint256",
          "name": "_newRate",
          "type": "uint256"
        }
      ],
      "name": "setRate",
      "outputs": [
        {
          "internalType": "uint256",
          "name": "newRate",
          "type": "uint256"
        }
      ],
      "stateMutability": "nonpayable",
      "type": "function"
    },
    {
      "inputs": [
        {
          "internalType": "address",
          "name": "account",
          "type": "address"
        }
      ],
      "name": "buyToken",
      "outputs": [
        {
          "internalType": "uint256",
          "name": "FundsRais",
          "type": "uint256"
        }
      ],
      "stateMutability": "payable",
      "type": "function",
      "payable": true
    },
    {
      "inputs": [
        {
          "internalType": "address",
          "name": "_seller",
          "type": "address"
        },
        {
          "internalType": "uint256",
          "name": "_tokenReturn",
          "type": "uint256"
        },
        {
          "internalType": "uint256",
          "name": "_rateSale",
          "type": "uint256"
        }
      ],
      "name": "tokenBuyBack",
      "outputs": [
        {
          "internalType": "bool",
          "name": "",
          "type": "bool"
        }
      ],
      "stateMutability": "payable",
      "type": "function",
      "payable": true
    },
    {
      "inputs": [],
      "name": "withdrawFunds",
      "outputs": [
        {
          "internalType": "uint256",
          "name": "FundRais",
          "type": "uint256"
        }
      ],
      "stateMutability": "payable",
      "type": "function",
      "payable": true
    }
  ],
  "bytecode": "0x60806040523480156200001157600080fd5b5062000023336200018b60201b60201c565b6040518060400160405280600981526020017f41525920546f6b656e0000000000000000000000000000000000000000000000815250600490805190602001906200007092919062000278565b506040518060400160405280600381526020017f415259000000000000000000000000000000000000000000000000000000000081525060059080519060200190620000be92919062000278565b506012600681905550426001620000d6919062000328565b600781905550600654600a620000ed9190620003e0565b6103e8620000fc91906200051d565b60038190555060035460016000620001196200024f60201b60201c565b73ffffffffffffffffffffffffffffffffffffffff1673ffffffffffffffffffffffffffffffffffffffff16815260200190815260200160002081905550600654600a620001689190620003e0565b6113886200017791906200051d565b600a81905550600160088190555062000629565b60008060009054906101000a900473ffffffffffffffffffffffffffffffffffffffff169050816000806101000a81548173ffffffffffffffffffffffffffffffffffffffff021916908373ffffffffffffffffffffffffffffffffffffffff1602179055508173ffffffffffffffffffffffffffffffffffffffff168173ffffffffffffffffffffffffffffffffffffffff167f8be0079c531659141344cd1fd0a4f28419497f9722a3daafe3b4186f6b6457e060405160405180910390a35050565b60008060009054906101000a900473ffffffffffffffffffffffffffffffffffffffff16905090565b828054620002869062000588565b90600052602060002090601f016020900481019282620002aa5760008555620002f6565b82601f10620002c557805160ff1916838001178555620002f6565b82800160010185558215620002f6579182015b82811115620002f5578251825591602001919060010190620002d8565b5b50905062000305919062000309565b5090565b5b80821115620003245760008160009055506001016200030a565b5090565b600062000335826200057e565b915062000342836200057e565b9250827fffffffffffffffffffffffffffffffffffffffffffffffffffffffffffffffff038211156200037a5762000379620005be565b5b828201905092915050565b6000808291508390505b6001851115620003d757808604811115620003af57620003ae620005be565b5b6001851615620003bf5780820291505b8081029050620003cf856200061c565b94506200038f565b94509492505050565b6000620003ed826200057e565b9150620003fa836200057e565b9250620004297fffffffffffffffffffffffffffffffffffffffffffffffffffffffffffffffff848462000431565b905092915050565b60008262000443576001905062000516565b8162000453576000905062000516565b81600181146200046c57600281146200047757620004ad565b600191505062000516565b60ff8411156200048c576200048b620005be565b5b8360020a915084821115620004a657620004a5620005be565b5b5062000516565b5060208310610133831016604e8410600b8410161715620004e75782820a905083811115620004e157620004e0620005be565b5b62000516565b620004f6848484600162000385565b9250905081840481111562000510576200050f620005be565b5b81810290505b9392505050565b60006200052a826200057e565b915062000537836200057e565b9250817fffffffffffffffffffffffffffffffffffffffffffffffffffffffffffffffff0483118215151615620005735762000572620005be565b5b828202905092915050565b6000819050919050565b60006002820490506001821680620005a157607f821691505b60208210811415620005b857620005b7620005ed565b5b50919050565b7f4e487b7100000000000000000000000000000000000000000000000000000000600052601160045260246000fd5b7f4e487b7100000000000000000000000000000000000000000000000000000000600052602260045260246000fd5b60008160011c9050919050565b61317380620006396000396000f3fe60806040526004361061014f5760003560e01c8063715018a6116100b65780638da5cb5b1161006f5780638da5cb5b146104905780639d70902f146104bb578063a9059cbb146104e6578063dd62ed3e14610523578063f2fde38b14610560578063fd397f1f1461058957610156565b8063715018a61461039a57806375ae889c146103b15780637686d63a146103da578063771282f61461040a57806378057b91146104355780637e72fb521461046057610156565b8063233ebc8b11610108578063233ebc8b1461025f57806323b872dd1461029c57806324600fc3146102d957806334fcf437146102f75780633601f1321461033457806370a082311461035d57610156565b806306fdde0314610158578063095ea7b31461018357806310782cb7146101c057806318160ddd146101eb5780631b54c0251461021657806320bbdd1e1461024157610156565b3661015657005b005b34801561016457600080fd5b5061016d6105b4565b60405161017a91906129f8565b60405180910390f35b34801561018f57600080fd5b506101aa60048036038101906101a591906121de565b610646565b6040516101b791906129dd565b60405180910390f35b3480156101cc57600080fd5b506101d561090c565b6040516101e29190612cfa565b60405180910390f35b3480156101f757600080fd5b50610200610912565b60405161020d9190612cfa565b60405180910390f35b34801561022257600080fd5b5061022b61091c565b6040516102389190612cfa565b60405180910390f35b610249610926565b6040516102569190612cfa565b60405180910390f35b34801561026b57600080fd5b50610286600480360381019061028191906121de565b610aa0565b60405161029391906129dd565b60405180910390f35b3480156102a857600080fd5b506102c360048036038101906102be919061218f565b610b9b565b6040516102d091906129dd565b60405180910390f35b6102e1610e7a565b6040516102ee9190612cfa565b60405180910390f35b34801561030357600080fd5b5061031e60048036038101906103199190612269565b610f40565b60405161032b9190612cfa565b60405180910390f35b34801561034057600080fd5b5061035b6004803603810190610356919061212a565b61105f565b005b34801561036957600080fd5b50610384600480360381019061037f919061212a565b61112f565b6040516103919190612cfa565b60405180910390f35b3480156103a657600080fd5b506103af611178565b005b3480156103bd57600080fd5b506103d860048036038101906103d3919061212a565b6111f9565b005b6103f460048036038101906103ef919061221a565b6112c9565b60405161040191906129dd565b60405180910390f35b34801561041657600080fd5b5061041f611516565b60405161042c9190612cfa565b60405180910390f35b34801561044157600080fd5b5061044a611571565b6040516104579190612cfa565b60405180910390f35b61047a6004803603810190610475919061212a565b611587565b6040516104879190612cfa565b60405180910390f35b34801561049c57600080fd5b506104a5611677565b6040516104b291906129c2565b60405180910390f35b3480156104c757600080fd5b506104d06116a0565b6040516104dd9190612cfa565b60405180910390f35b3480156104f257600080fd5b5061050d600480360381019061050891906121de565b6116aa565b60405161051a91906129dd565b60405180910390f35b34801561052f57600080fd5b5061054a60048036038101906105459190612153565b6116c2565b6040516105579190612cfa565b60405180910390f35b34801561056c57600080fd5b506105876004803603810190610582919061212a565b611749565b005b34801561059557600080fd5b5061059e61183a565b6040516105ab91906129f8565b60405180910390f35b6060600480546105c390613032565b80601f01602080910402602001604051908101604052809291908181526020018280546105ef90613032565b801561063c5780601f106106115761010080835404028352916020019161063c565b820191906000526020600020905b81548152906001019060200180831161061f57829003601f168201915b5050505050905090565b6000803390508073ffffffffffffffffffffffffffffffffffffffff163373ffffffffffffffffffffffffffffffffffffffff16146106ba576040517f08c379a00000000000000000000000000000000000000000000000000000000081526004016106b190612c1a565b60405180910390fd5b82600160008373ffffffffffffffffffffffffffffffffffffffff1673ffffffffffffffffffffffffffffffffffffffff168152602001908152602001600020541161073b576040517f08c379a000000000000000000000000000000000000000000000000000000000815260040161073290612b1a565b60405180910390fd5b600073ffffffffffffffffffffffffffffffffffffffff168173ffffffffffffffffffffffffffffffffffffffff1614156107ab576040517f08c379a00000000000000000000000000000000000000000000000000000000081526004016107a290612bba565b60405180910390fd5b600073ffffffffffffffffffffffffffffffffffffffff168473ffffffffffffffffffffffffffffffffffffffff16141561081b576040517f08c379a000000000000000000000000000000000000000000000000000000000815260040161081290612c5a565b60405180910390fd5b82600260008373ffffffffffffffffffffffffffffffffffffffff1673ffffffffffffffffffffffffffffffffffffffff16815260200190815260200160002060008673ffffffffffffffffffffffffffffffffffffffff1673ffffffffffffffffffffffffffffffffffffffff168152602001908152602001600020819055508373ffffffffffffffffffffffffffffffffffffffff168173ffffffffffffffffffffffffffffffffffffffff167f8c5be1e5ebec7d5bd14f71427d1e84f3dd0314c0f7b2291e5b200ac8c7c3b925856040516108f99190612cfa565b60405180910390a3600191505092915050565b60095481565b6000600354905090565b6000600754905090565b60003373ffffffffffffffffffffffffffffffffffffffff16610947611677565b73ffffffffffffffffffffffffffffffffffffffff161461099d576040517f08c379a000000000000000000000000000000000000000000000000000000000815260040161099490612b7a565b60405180910390fd5b60003090506000600160008373ffffffffffffffffffffffffffffffffffffffff1673ffffffffffffffffffffffffffffffffffffffff1681526020019081526020016000205490506000811115610a8057610a01826109fb611677565b836118cc565b507f0989e97db8b1f78ab91f1a02cb8a47286c74c3a10c9730e2c8bf30ab2f27d57e60016000610a2f611677565b73ffffffffffffffffffffffffffffffffffffffff1673ffffffffffffffffffffffffffffffffffffffff16815260200190815260200160002054604051610a779190612cfa565b60405180910390a15b610a88611677565b73ffffffffffffffffffffffffffffffffffffffff16ff5b60008073ffffffffffffffffffffffffffffffffffffffff168373ffffffffffffffffffffffffffffffffffffffff161415610b11576040517f08c379a0000000000000000000000000000000000000000000000000000000008152600401610b0890612b5a565b60405180910390fd5b610b196116a0565b600654600a610b289190612e0b565b83610b339190612f29565b610b3b610912565b610b459190612d31565b1115610b86576040517f08c379a0000000000000000000000000000000000000000000000000000000008152600401610b7d90612ada565b60405180910390fd5b610b908383611be0565b506001905092915050565b60006007544211610be1576040517f08c379a0000000000000000000000000000000000000000000000000000000008152600401610bd890612cda565b60405180910390fd5b6078600754610bf09190612d31565b4210610c31576040517f08c379a0000000000000000000000000000000000000000000000000000000008152600401610c2890612afa565b60405180910390fd5b60003390506000600260008773ffffffffffffffffffffffffffffffffffffffff1673ffffffffffffffffffffffffffffffffffffffff16815260200190815260200160002060008373ffffffffffffffffffffffffffffffffffffffff1673ffffffffffffffffffffffffffffffffffffffff168152602001908152602001600020549050838111610cf9576040517f08c379a0000000000000000000000000000000000000000000000000000000008152600401610cf090612aba565b60405180910390fd5b600073ffffffffffffffffffffffffffffffffffffffff168573ffffffffffffffffffffffffffffffffffffffff161415610d69576040517f08c379a0000000000000000000000000000000000000000000000000000000008152600401610d6090612a7a565b60405180910390fd5b83600260008873ffffffffffffffffffffffffffffffffffffffff1673ffffffffffffffffffffffffffffffffffffffff16815260200190815260200160002060008473ffffffffffffffffffffffffffffffffffffffff1673ffffffffffffffffffffffffffffffffffffffff1681526020019081526020016000206000828254610df59190612f83565b92505081905550610e078686866118cc565b508473ffffffffffffffffffffffffffffffffffffffff168673ffffffffffffffffffffffffffffffffffffffff167fddf252ad1be2c89b69c2b068fc378daa952ba7f163c4a11628f55a4df523b3ef86604051610e659190612cfa565b60405180910390a36001925050509392505050565b60003373ffffffffffffffffffffffffffffffffffffffff16610e9b611677565b73ffffffffffffffffffffffffffffffffffffffff1614610ef1576040517f08c379a0000000000000000000000000000000000000000000000000000000008152600401610ee890612b7a565b60405180910390fd5b3373ffffffffffffffffffffffffffffffffffffffff166108fc479081150290604051600060405180830381858888f19350505050158015610f37573d6000803e3d6000fd5b50600954905090565b6000610f4a611677565b73ffffffffffffffffffffffffffffffffffffffff163373ffffffffffffffffffffffffffffffffffffffff161480610fcc5750600b60003373ffffffffffffffffffffffffffffffffffffffff1673ffffffffffffffffffffffffffffffffffffffff16815260200190815260200160002060009054906101000a900460ff165b61100b576040517f08c379a000000000000000000000000000000000000000000000000000000000815260040161100290612bfa565b60405180910390fd5b6000821161104e576040517f08c379a000000000000000000000000000000000000000000000000000000000815260040161104590612a1a565b60405180910390fd5b816008819055506008549050919050565b3373ffffffffffffffffffffffffffffffffffffffff1661107e611677565b73ffffffffffffffffffffffffffffffffffffffff16146110d4576040517f08c379a00000000000000000000000000000000000000000000000000000000081526004016110cb90612b7a565b60405180910390fd5b6000600b60008373ffffffffffffffffffffffffffffffffffffffff1673ffffffffffffffffffffffffffffffffffffffff16815260200190815260200160002060006101000a81548160ff02191690831515021790555050565b6000600160008373ffffffffffffffffffffffffffffffffffffffff1673ffffffffffffffffffffffffffffffffffffffff168152602001908152602001600020549050919050565b3373ffffffffffffffffffffffffffffffffffffffff16611197611677565b73ffffffffffffffffffffffffffffffffffffffff16146111ed576040517f08c379a00000000000000000000000000000000000000000000000000000000081526004016111e490612b7a565b60405180910390fd5b6111f76000611d9d565b565b3373ffffffffffffffffffffffffffffffffffffffff16611218611677565b73ffffffffffffffffffffffffffffffffffffffff161461126e576040517f08c379a000000000000000000000000000000000000000000000000000000000815260040161126590612b7a565b60405180910390fd5b6001600b60008373ffffffffffffffffffffffffffffffffffffffff1673ffffffffffffffffffffffffffffffffffffffff16815260200190815260200160002060006101000a81548160ff02191690831515021790555050565b600080849050600060065460016112e09190612e0b565b84866112ec9190612d87565b6112f69190612d87565b90508173ffffffffffffffffffffffffffffffffffffffff163373ffffffffffffffffffffffffffffffffffffffff161480156113605750600073ffffffffffffffffffffffffffffffffffffffff168273ffffffffffffffffffffffffffffffffffffffff1614155b61139f576040517f08c379a000000000000000000000000000000000000000000000000000000000815260040161139690612a3a565b60405180910390fd5b6113a88261112f565b8511156113ea576040517f08c379a00000000000000000000000000000000000000000000000000000000081526004016113e190612a9a565b60405180910390fd5b60095481111561142f576040517f08c379a000000000000000000000000000000000000000000000000000000000815260040161142690612cba565b60405180910390fd5b6114418261143b611677565b876118cc565b50806009546114509190612f83565b6009819055508173ffffffffffffffffffffffffffffffffffffffff166108fc829081150290604051600060405180830381858888f1935050505015801561149c573d6000803e3d6000fd5b506114a5611677565b73ffffffffffffffffffffffffffffffffffffffff168273ffffffffffffffffffffffffffffffffffffffff167fddf252ad1be2c89b69c2b068fc378daa952ba7f163c4a11628f55a4df523b3ef876040516115019190612cfa565b60405180910390a36001925050509392505050565b600060016000611524611677565b73ffffffffffffffffffffffffffffffffffffffff1673ffffffffffffffffffffffffffffffffffffffff1681526020019081526020016000205460035461156c9190612f83565b905090565b600060786007546115829190612d31565b905090565b600080600854346115989190612f29565b9050346009546115a89190612d31565b600981905550600073ffffffffffffffffffffffffffffffffffffffff168373ffffffffffffffffffffffffffffffffffffffff16141561161e576040517f08c379a000000000000000000000000000000000000000000000000000000000815260040161161590612c7a565b60405180910390fd5b60003411611661576040517f08c379a000000000000000000000000000000000000000000000000000000000815260040161165890612b3a565b60405180910390fd5b61166b8382611e61565b50600954915050919050565b60008060009054906101000a900473ffffffffffffffffffffffffffffffffffffffff16905090565b6000600a54905090565b60006116b73384846118cc565b506001905092915050565b6000600260008473ffffffffffffffffffffffffffffffffffffffff1673ffffffffffffffffffffffffffffffffffffffff16815260200190815260200160002060008373ffffffffffffffffffffffffffffffffffffffff1673ffffffffffffffffffffffffffffffffffffffff16815260200190815260200160002054905092915050565b3373ffffffffffffffffffffffffffffffffffffffff16611768611677565b73ffffffffffffffffffffffffffffffffffffffff16146117be576040517f08c379a00000000000000000000000000000000000000000000000000000000081526004016117b590612b7a565b60405180910390fd5b600073ffffffffffffffffffffffffffffffffffffffff168173ffffffffffffffffffffffffffffffffffffffff16141561182e576040517f08c379a000000000000000000000000000000000000000000000000000000000815260040161182590612a5a565b60405180910390fd5b61183781611d9d565b50565b60606005805461184990613032565b80601f016020809104026020016040519081016040528092919081815260200182805461187590613032565b80156118c25780601f10611897576101008083540402835291602001916118c2565b820191906000526020600020905b8154815290600101906020018083116118a557829003601f168201915b5050505050905090565b60006007544211611912576040517f08c379a000000000000000000000000000000000000000000000000000000000815260040161190990612cda565b60405180910390fd5b60786007546119219190612d31565b4210611962576040517f08c379a000000000000000000000000000000000000000000000000000000000815260040161195990612afa565b60405180910390fd5b600073ffffffffffffffffffffffffffffffffffffffff168473ffffffffffffffffffffffffffffffffffffffff1614156119d2576040517f08c379a00000000000000000000000000000000000000000000000000000000081526004016119c990612c3a565b60405180910390fd5b600073ffffffffffffffffffffffffffffffffffffffff168373ffffffffffffffffffffffffffffffffffffffff161415611a42576040517f08c379a0000000000000000000000000000000000000000000000000000000008152600401611a3990612c9a565b60405180910390fd5b81600160008673ffffffffffffffffffffffffffffffffffffffff1673ffffffffffffffffffffffffffffffffffffffff168152602001908152602001600020541015611ac4576040517f08c379a0000000000000000000000000000000000000000000000000000000008152600401611abb90612b9a565b60405180910390fd5b81600160008673ffffffffffffffffffffffffffffffffffffffff1673ffffffffffffffffffffffffffffffffffffffff1681526020019081526020016000206000828254611b139190612f83565b9250508190555081600160008573ffffffffffffffffffffffffffffffffffffffff1673ffffffffffffffffffffffffffffffffffffffff1681526020019081526020016000206000828254611b699190612d31565b925050819055508273ffffffffffffffffffffffffffffffffffffffff168473ffffffffffffffffffffffffffffffffffffffff167fddf252ad1be2c89b69c2b068fc378daa952ba7f163c4a11628f55a4df523b3ef84604051611bcd9190612cfa565b60405180910390a3600190509392505050565b60006007544211611c26576040517f08c379a0000000000000000000000000000000000000000000000000000000008152600401611c1d90612cda565b60405180910390fd5b6078600754611c359190612d31565b4210611c76576040517f08c379a0000000000000000000000000000000000000000000000000000000008152600401611c6d90612afa565b60405180910390fd5b600073ffffffffffffffffffffffffffffffffffffffff168373ffffffffffffffffffffffffffffffffffffffff1614158015611cb35750600082115b611cf2576040517f08c379a0000000000000000000000000000000000000000000000000000000008152600401611ce990612bda565b60405180910390fd5b600654600a611d019190612e0b565b82611d0c9190612f29565b60036000828254611d1d9190612d31565b92505081905550600654600a611d339190612e0b565b82611d3e9190612f29565b600160008573ffffffffffffffffffffffffffffffffffffffff1673ffffffffffffffffffffffffffffffffffffffff1681526020019081526020016000206000828254611d8c9190612d31565b925050819055506001905092915050565b60008060009054906101000a900473ffffffffffffffffffffffffffffffffffffffff169050816000806101000a81548173ffffffffffffffffffffffffffffffffffffffff021916908373ffffffffffffffffffffffffffffffffffffffff1602179055508173ffffffffffffffffffffffffffffffffffffffff168173ffffffffffffffffffffffffffffffffffffffff167f8be0079c531659141344cd1fd0a4f28419497f9722a3daafe3b4186f6b6457e060405160405180910390a35050565b60006007544211611ea7576040517f08c379a0000000000000000000000000000000000000000000000000000000008152600401611e9e90612cda565b60405180910390fd5b6078600754611eb69190612d31565b4210611ef7576040517f08c379a0000000000000000000000000000000000000000000000000000000008152600401611eee90612afa565b60405180910390fd5b600073ffffffffffffffffffffffffffffffffffffffff163373ffffffffffffffffffffffffffffffffffffffff161415611f67576040517f08c379a0000000000000000000000000000000000000000000000000000000008152600401611f5e90612c3a565b60405180910390fd5b600073ffffffffffffffffffffffffffffffffffffffff168373ffffffffffffffffffffffffffffffffffffffff161415611fd7576040517f08c379a0000000000000000000000000000000000000000000000000000000008152600401611fce90612c9a565b60405180910390fd5b8160016000611fe4611677565b73ffffffffffffffffffffffffffffffffffffffff1673ffffffffffffffffffffffffffffffffffffffff168152602001908152602001600020600082825461202d9190612f83565b9250508190555081600160008573ffffffffffffffffffffffffffffffffffffffff1673ffffffffffffffffffffffffffffffffffffffff16815260200190815260200160002060008282546120839190612d31565b925050819055508273ffffffffffffffffffffffffffffffffffffffff166120a9611677565b73ffffffffffffffffffffffffffffffffffffffff167fddf252ad1be2c89b69c2b068fc378daa952ba7f163c4a11628f55a4df523b3ef846040516120ee9190612cfa565b60405180910390a36001905092915050565b60008135905061210f8161310f565b92915050565b60008135905061212481613126565b92915050565b60006020828403121561213c57600080fd5b600061214a84828501612100565b91505092915050565b6000806040838503121561216657600080fd5b600061217485828601612100565b925050602061218585828601612100565b9150509250929050565b6000806000606084860312156121a457600080fd5b60006121b286828701612100565b93505060206121c386828701612100565b92505060406121d486828701612115565b9150509250925092565b600080604083850312156121f157600080fd5b60006121ff85828601612100565b925050602061221085828601612115565b9150509250929050565b60008060006060848603121561222f57600080fd5b600061223d86828701612100565b935050602061224e86828701612115565b925050604061225f86828701612115565b9150509250925092565b60006020828403121561227b57600080fd5b600061228984828501612115565b91505092915050565b61229b81612fb7565b82525050565b6122aa81612fc9565b82525050565b60006122bb82612d15565b6122c58185612d20565b93506122d5818560208601612fff565b6122de816130f1565b840191505092915050565b60006122f6601583612d20565b91507f52617465206d757374206e6f74206265205a65726f00000000000000000000006000830152602082019050919050565b6000612336602383612d20565b91507f53656c6c6572206d7573742062652076616c6964206163636f756e7420686f6c60008301527f64657200000000000000000000000000000000000000000000000000000000006020830152604082019050919050565b600061239c602683612d20565b91507f4f776e61626c653a206e6577206f776e657220697320746865207a65726f206160008301527f64647265737300000000000000000000000000000000000000000000000000006020830152604082019050919050565b6000612402601e83612d20565b91507f526563697069656e74206973206e6f742076616c6964206164647265737300006000830152602082019050919050565b6000612442602683612d20565b91507f53656c6c657220746f6b656e2062616c616e6365206973206e6f74207375666660008301527f696369656e7400000000000000000000000000000000000000000000000000006020830152604082019050919050565b60006124a8603683612d20565b91507f417574686f72697a6572206c696d6974206973206e6f7420656e6f756768202f60008301527f6f722f20696e73756666696369656e742066756e6473000000000000000000006020830152604082019050919050565b600061250e601883612d20565b91507f546f6b656e43617065643a2043617020657863656564656400000000000000006000830152602082019050919050565b600061254e601283612d20565b91507f45524332303a2053616c657320456e64656400000000000000000000000000006000830152602082019050919050565b600061258e602883612d20565b91507f496e73756666696369656e742066756e647320696e20746f6b656e4f776e657260008301527f206163636f756e740000000000000000000000000000000000000000000000006020830152604082019050919050565b60006125f4602783612d20565b91507f6d696e696d756d207075726368617365206d757374206e6f74206265205a657260008301527f6f206574686572000000000000000000000000000000000000000000000000006020830152604082019050919050565b600061265a602283612d20565b91507f6163636f756e742073686f756c64206e6f74206265207a656f7220616464726560008301527f73730000000000000000000000000000000000000000000000000000000000006020830152604082019050919050565b60006126c0602083612d20565b91507f4f776e61626c653a2063616c6c6572206973206e6f7420746865206f776e65726000830152602082019050919050565b6000612700601483612d20565b91507f696e73756666696369656e742062616c616e63650000000000000000000000006000830152602082019050919050565b6000612740601f83612d20565b91507f746f6b656e4f776e6572206973206e6f742076616c69642061646472657373006000830152602082019050919050565b6000612780601183612d20565b91507f756e617574686f72697a65642063616c6c0000000000000000000000000000006000830152602082019050919050565b60006127c0601883612d20565b91507f63616c6c6572206973206e6f7420617574686f72697a657200000000000000006000830152602082019050919050565b6000612800601883612d20565b91507f43616c6c6572206973206e6f7420746f6b656e4f776e657200000000000000006000830152602082019050919050565b6000612840601b83612d20565b91507f73656e646572206973206e6f742076616c6964206164647265737300000000006000830152602082019050919050565b6000612880601c83612d20565b91507f7370656e646572206973206e6f742076616c69642061646472657373000000006000830152602082019050919050565b60006128c0601883612d20565b91507f61646472657373206d757374206e6f74206265205a65726f00000000000000006000830152602082019050919050565b6000612900601e83612d20565b91507f726563697069656e74206973206e6f742076616c6964206164647265737300006000830152602082019050919050565b6000612940601b83612d20565b91507f4e6f206c697175696469747920666f72207468697320746f6b656e00000000006000830152602082019050919050565b6000612980602083612d20565b91507f45524332303a205761697420666f72207468652076657374696e672074696d656000830152602082019050919050565b6129bc81612ff5565b82525050565b60006020820190506129d76000830184612292565b92915050565b60006020820190506129f260008301846122a1565b92915050565b60006020820190508181036000830152612a1281846122b0565b905092915050565b60006020820190508181036000830152612a33816122e9565b9050919050565b60006020820190508181036000830152612a5381612329565b9050919050565b60006020820190508181036000830152612a738161238f565b9050919050565b60006020820190508181036000830152612a93816123f5565b9050919050565b60006020820190508181036000830152612ab381612435565b9050919050565b60006020820190508181036000830152612ad38161249b565b9050919050565b60006020820190508181036000830152612af381612501565b9050919050565b60006020820190508181036000830152612b1381612541565b9050919050565b60006020820190508181036000830152612b3381612581565b9050919050565b60006020820190508181036000830152612b53816125e7565b9050919050565b60006020820190508181036000830152612b738161264d565b9050919050565b60006020820190508181036000830152612b93816126b3565b9050919050565b60006020820190508181036000830152612bb3816126f3565b9050919050565b60006020820190508181036000830152612bd381612733565b9050919050565b60006020820190508181036000830152612bf381612773565b9050919050565b60006020820190508181036000830152612c13816127b3565b9050919050565b60006020820190508181036000830152612c33816127f3565b9050919050565b60006020820190508181036000830152612c5381612833565b9050919050565b60006020820190508181036000830152612c7381612873565b9050919050565b60006020820190508181036000830152612c93816128b3565b9050919050565b60006020820190508181036000830152612cb3816128f3565b9050919050565b60006020820190508181036000830152612cd381612933565b9050919050565b60006020820190508181036000830152612cf381612973565b9050919050565b6000602082019050612d0f60008301846129b3565b92915050565b600081519050919050565b600082825260208201905092915050565b6000612d3c82612ff5565b9150612d4783612ff5565b9250827fffffffffffffffffffffffffffffffffffffffffffffffffffffffffffffffff03821115612d7c57612d7b613064565b5b828201905092915050565b6000612d9282612ff5565b9150612d9d83612ff5565b925082612dad57612dac613093565b5b828204905092915050565b6000808291508390505b6001851115612e0257808604811115612dde57612ddd613064565b5b6001851615612ded5780820291505b8081029050612dfb85613102565b9450612dc2565b94509492505050565b6000612e1682612ff5565b9150612e2183612ff5565b9250612e4e7fffffffffffffffffffffffffffffffffffffffffffffffffffffffffffffffff8484612e56565b905092915050565b600082612e665760019050612f22565b81612e745760009050612f22565b8160018114612e8a5760028114612e9457612ec3565b6001915050612f22565b60ff841115612ea657612ea5613064565b5b8360020a915084821115612ebd57612ebc613064565b5b50612f22565b5060208310610133831016604e8410600b8410161715612ef85782820a905083811115612ef357612ef2613064565b5b612f22565b612f058484846001612db8565b92509050818404811115612f1c57612f1b613064565b5b81810290505b9392505050565b6000612f3482612ff5565b9150612f3f83612ff5565b9250817fffffffffffffffffffffffffffffffffffffffffffffffffffffffffffffffff0483118215151615612f7857612f77613064565b5b828202905092915050565b6000612f8e82612ff5565b9150612f9983612ff5565b925082821015612fac57612fab613064565b5b828203905092915050565b6000612fc282612fd5565b9050919050565b60008115159050919050565b600073ffffffffffffffffffffffffffffffffffffffff82169050919050565b6000819050919050565b60005b8381101561301d578082015181840152602081019050613002565b8381111561302c576000848401525b50505050565b6000600282049050600182168061304a57607f821691505b6020821081141561305e5761305d6130c2565b5b50919050565b7f4e487b7100000000000000000000000000000000000000000000000000000000600052601160045260246000fd5b7f4e487b7100000000000000000000000000000000000000000000000000000000600052601260045260246000fd5b7f4e487b7100000000000000000000000000000000000000000000000000000000600052602260045260246000fd5b6000601f19601f8301169050919050565b60008160011c9050919050565b61311881612fb7565b811461312357600080fd5b50565b61312f81612ff5565b811461313a57600080fd5b5056fea2646970667358221220a59a4915cedb048db64d2c50711c8ecda2db3893952e9ea3a0aec7d29467525164736f6c63430008000033",
  "immutableReferences": {},
  "source": "// SPDX-License-Identifier: MIT\n\npragma solidity ^0.8.0;\n\ninterface IERC20{\n    function totalSupply() external view returns(uint);\n    function balanceOf(address account) external view returns(uint);\n    \n    function transfer(address recipient, uint amount) external returns(bool);\n    function transferFrom(address sender, address recipient, uint amount) external returns(bool);\n    \n    function approve(address spender, uint amount) external returns(bool);\n    function allowance(address owner, address spender) external view returns(uint);\n    \n    event Transfer (address indexed from, address indexed to, uint value);\n    event Approval (address indexed owner, address indexed spender, uint value);\n}\n\n\n\n\ncontract Ownable{\n    \n    address private _owner;\n    event OwnershipTransferred(address indexed previousOwner, address indexed newOwner);\n\n    constructor() {\n        _setOwner(msg.sender);\n    }\n\n    modifier onlyOwner() {\n        require(owner() == msg.sender, \"Ownable: caller is not the owner\");\n        _;\n    }\n    \n       function owner() public view virtual returns (address) {\n        return _owner;\n    }\n\n    function renounceOwnership() public virtual onlyOwner {\n        _setOwner(address(0));\n    }\n\n    function transferOwnership(address newOwner) public virtual onlyOwner {\n        require(newOwner != address(0), \"Ownable: new owner is the zero address\");\n        _setOwner(newOwner);\n    }\n\n    function _setOwner(address newOwner) private {\n        address oldOwner = _owner;\n        _owner = newOwner;\n        emit OwnershipTransferred(oldOwner, newOwner);\n    }\n}\n\n\n\n\n\n\n\ncontract ERC20 is IERC20, Ownable{\n    \n    mapping (address => uint) private _balances;\n    mapping (address => mapping(address => uint )) private _allowances;\n   \n    uint internal _totalSupply;\n    string internal _name;\n    string internal _symbol;\n    uint internal decimals;\n    uint internal lockTime;\n    event _Balances(uint);\n    \n    constructor() {\n        _name = \"ARY Token\";\n        _symbol = \"ARY\";\n        decimals = 18;\n        lockTime = 1 + block.timestamp; //2629743 = one month ----- for practice purpose 2 minutes are keeping lockTime\n        \n        _totalSupply = 1000 * 10**decimals;\n        _balances[owner()] = _totalSupply;\n    }\n    \n    modifier isTimeLock(){\n        require(block.timestamp > lockTime,\"ERC20: Wait for the vesting time\");\n        require(block.timestamp < (lockTime + 120), \"ERC20: Sales Ended\");\n        _;\n    } \n    \n    function name()public view returns(string memory){\n        return _name;\n    }\n    \n    function symblol()public view returns(string memory){\n        return _symbol;\n    }\n    \n    function totalSupply()public view virtual override returns(uint){\n        return _totalSupply;\n    }\n    \n    function balanceOf(address account) public view virtual override returns(uint){\n        return _balances[account];\n    }\n    \n    function currentSupply() public view returns(uint){\n        return (_totalSupply - _balances[owner()]);\n        \n    }\n    \n    function salesStartTime()public view returns(uint){\n        return lockTime;\n    }\n    \n    function salesEtartTime()public view returns(uint){\n        return (lockTime + 120);\n    }\n    \n    function transfer(address recipient, uint amount)public virtual override returns(bool){\n        _transfer(msg.sender, recipient, amount);\n        return true;\n    }\n    \n      function _transfer(address sender, address recipient, uint amount)internal virtual isTimeLock returns(bool){\n        require(sender != address(0), \"sender is not valid address\");\n        require(recipient != address(0), \"recipient is not valid address\");\n        require(_balances[sender] >= amount,\"insufficient balance\");\n        \n      _balances[sender] -= amount; \n      _balances[recipient] += amount;\n      \n        emit Transfer(sender, recipient, amount);\n        return true;\n    }\n    \n    function buyTokens(address recipient, uint amount)internal virtual isTimeLock returns(bool){\n        require(msg.sender != address(0), \"sender is not valid address\");\n        require(recipient != address(0), \"recipient is not valid address\");\n        \n       _balances[owner()] -= amount; \n       _balances[recipient] += amount;\n      \n        emit Transfer(owner(), recipient, amount);\n        return true;\n    }  \n    \n    function mint(address account, uint _mint)internal virtual isTimeLock returns(bool){\n        require(account != address(0) && _mint > 0,\"unauthorized call\");\n        _totalSupply += _mint*10**decimals;\n        _balances[account] += _mint*10**decimals;\n        return true;\n    }\n\n    function approve(address spender, uint amount)public virtual override returns(bool){\n        address tokenOwner = msg.sender;\n        \n        require(msg.sender == tokenOwner,\"Caller is not tokenOwner\");\n        require(_balances[tokenOwner] > amount,\"Insufficient funds in tokenOwner account\");\n        require(tokenOwner != address(0), \"tokenOwner is not valid address\");\n        require(spender != address(0), \"spender is not valid address\");\n        \n        _allowances[tokenOwner][spender] = amount;\n        emit Approval(tokenOwner,spender,amount);\n        return true;\n    }\n    \n    function allowance(address tokenOwner, address spender)public virtual override view returns(uint){\n        return _allowances[tokenOwner][spender];\n    }\n    \n    function transferFrom(address tokenOwner, address recipient, uint amount)public virtual override isTimeLock returns(bool){\n        address spender = msg.sender;\n        uint value = _allowances[tokenOwner][spender];\n        require(value > amount,\"Authorizer limit is not enough /or/ insufficient funds\");\n        require(recipient != address(0), \"Recipient is not valid address\");\n        \n        _allowances[tokenOwner][spender] -= amount;\n        _transfer(tokenOwner,recipient,amount);\n        \n        emit Transfer(tokenOwner, recipient, amount);\n        return true;\n    }\n    \n    function killingContract()external payable onlyOwner() returns(uint){\n        address contractAddress = address(this);\n        uint remainingToken = _balances[contractAddress];\n        if (remainingToken > 0){\n            _transfer(contractAddress,owner(),remainingToken);\n            emit _Balances (_balances[owner()]);\n        }\n\n        selfdestruct(payable(owner()));\n        emit Transfer(contractAddress,owner(),remainingToken);\n        return _balances[owner()];\n    }\n    \n}\n\n\n\n\n\n\n\ncontract TokenSale is ERC20{\n    \n    uint internal rateBuy;           // rate of token = Ether\n    uint public fundRais;       //sum of ethers collecting during token sale\n    uint internal maxSupply;\n    mapping (address => bool) internal priceSetter;\n    \n    \n    constructor(){\n        maxSupply = 5000 *10**decimals;\n        rateBuy = 1;                     // 1 ether = 100 ARY\n    }\n    \n    modifier isAuthorizer () {\n       require(msg.sender == owner() || priceSetter[msg.sender],\"caller is not authorizer\"); \n        _;\n    }\n    \n    fallback()external payable{   }\n    \n    receive() external payable{   }\n    \n    function maxSupplyCap()public view returns(uint){\n        return maxSupply;\n    }\n    \n    function minting(address account, uint _mint)public  returns(bool){\n        require(account != address(0),\"account should not be zeor address\");\n        require(totalSupply() + (_mint*10**decimals) <= maxSupplyCap(),\"TokenCaped: Cap exceeded\");\n        mint(account,_mint);\n        return true;\n    }\n    \n    \n    function setRateSetter(address _priceSetter)public onlyOwner(){\n        priceSetter[_priceSetter] = true;\n    }\n    \n    function delRateSetter(address _priceSetter)public onlyOwner(){\n        priceSetter[_priceSetter] = false;\n    }\n    \n    \n    function setRate(uint _newRate) public isAuthorizer returns(uint newRate){\n        require(_newRate > 0,\"Rate must not be Zero\");\n        rateBuy = _newRate;\n        return rateBuy;\n    }\n    \n    // function isContract(address _addr) private view returns (bool is_contract) {\n    //     uint length;\n    //         assembly {\n    //             // retrieve the size of the code on target address; this needs assembly\n    //                 length := extcodesize(_addr)\n    //             }\n    //         return (length>0);\n    // }\n    \n    function buyToken(address account) public payable returns(uint FundsRais){\n        uint tokensAllocation = msg.value * rateBuy;\n        fundRais = fundRais + msg.value;\n        \n        require(account != address(0), \"address must not be Zero\");\n        require(msg.value > 0,\"minimum purchase must not be Zero ether\");\n        \n        buyTokens(account,tokensAllocation);\n        return fundRais;\n    }\n    \n    function tokenBuyBack(address _seller, uint _tokenReturn, uint _rateSale)public payable returns(bool){\n        address seller = _seller;\n        uint etherReturn = (_tokenReturn / _rateSale)/(1**decimals);\n        \n        require (msg.sender == seller && seller !=address(0),\"Seller must be valid account holder\");\n        require (_tokenReturn <= balanceOf(seller),\"Seller token balance is not sufficient\");\n        require (etherReturn <= fundRais,\"No liquidity for this token\");\n\n        _transfer(seller,owner(),_tokenReturn);\n        fundRais = fundRais - etherReturn;\n        payable(seller).transfer(etherReturn);\n        \n        emit Transfer(seller, owner(),_tokenReturn);\n        return true;\n    }\n    \n    function withdrawFunds()public payable onlyOwner() returns(uint FundRais){\n        payable(msg.sender).transfer(address(this).balance);\n        return fundRais;\n    }\n    \n    \n    \n}\n",
  "sourcePath": "C:\\Users\\ASIM_PIAIC_BCC\\Desktop\\ARYToken\\Truffle\\contracts\\Migrations.sol",
  "compiler": {
    "name": "solc",
    "version": "0.8.0+commit.c7dfd78e.Emscripten.clang"
  },
  "schemaVersion": "3.4.3",
  "updatedAt": "2021-11-08T18:52:28.141Z",
  "networkType": "ethereum",
  "devdoc": {
    "kind": "dev",
    "methods": {},
    "version": 1
  },
  "userdoc": {
    "kind": "user",
    "methods": {},
    "version": 1
  }
}